:020000040800F2
:10000000000003205D060008FD210008FF21000814
:100010000122000803220008052200080000000059
:100020000000000000000000000000001173000844
:100030000722000800000000A1730008316C0008CE
:10004000AD060008AD060008AD060008AD060008C4
:10005000AD060008AD060008AD060008AD060008B4
:10006000AD060008AD060008AD060008AD060008A4
:10007000AD060008AD060008AD060008AD06000894
:10008000AD060008AD060008AD060008AD06000884
:10009000AD060008AD060008AD060008AD06000874
:1000A000AD060008AD060008AD060008AD06000864
:1000B000AD060008AD060008AD060008AD06000854
:1000C000AD060008AD060008AD060008AD06000844
:1000D000AD060008AD060008AD060008AD06000834
:1000E000AD060008AD060008AD060008AD06000824
:1000F000AD060008AD060008AD060008AD06000814
:10010000AD060008AD060008AD060008AD06000803
:10011000AD060008AD06000809220008AD0600087B
:10012000AD060008AD060008AD060008AD060008E3
:10013000AD060008AD060008AD060008AD060008D3
:10014000AD060008AD060008AD060008AD060008C3
:10015000AD060008AD060008AD060008AD060008B3
:10016000AD060008AD060008AD060008AD060008A3
:10017000AD060008AD060008AD060008000000004E
:10018000AD060008AD060008AD060008AD06000883
:10019000AD060008AD060008AD060008AD06000873
:0C01A00015220008AD060008212200080E
:1001B00010B5054C237833B9044B13B10448AFF3A1
:1001C00000800123237010BD800300200000000088
:1001D000C821020808B5034B1BB103490348AFF31C
:1001E000008008BD0000000084030020C821020830
:1001F00001F0FF01102A2BDB10F0070F08D010F8D8
:10020000013B013A8B422DD010F0070F42B3F6D1DB
:10021000F0B441EA012141EA014122F007047FF0F4
:1002200000070023F0E80256083C85EA010586EA4B
:10023000010685FA47F5A3FA87F586FA47F6A5FA87
:1002400087F68EB9EED1F0BC01F0FF0102F0070293
:1002500032B110F8013B013A83EA010313B1F8D13E
:100260000020704701387047002D06BF354603381F
:10027000073815F0010F07D1013015F4807F02BF58
:10028000013015F4C03F0130F0BC0138704700BFA9
:100290007BB972B90029BEBF00204FF0004106E0D3
:1002A00008BF00281CBF6FF000414FF0FF3000F086
:1002B000D3B9ADF1080C6DE904CE002909DB002BA0
:1002C0001ADB00F04DF8DDF804E0DDE9022304B0AC
:1002D0007047404261EB4101002B1BDB00F040F80E
:1002E000DDF804E0DDE9022304B0404261EB4101A6
:1002F000524263EB43037047524263EB430300F007
:100300002FF8DDF804E0DDE9022304B0404261EBA0
:1003100041017047524263EB430300F021F8DDF8DE
:1003200004E0DDE9022304B0524263EB430370476B
:1003300053B94AB9002908BF00281CBF4FF0FF314C
:100340004FF0FF3000F088B9ADF1080C6DE904CE34
:1003500000F006F8DDF804E0DDE9022304B07047A0
:100360002DE9F047089D8E4604468846002B4AD169
:100370008A42174662D9B2FA82F64EB1C6F120031C
:1003800001FA06F820FA03F3B74043EA0808B4403C
:100390004FEA174E1FFA87FCB8FBFEF1230C0EFB49
:1003A000118843EA084301FB0CF29A4209D9FB1871
:1003B00001F1FF3080F0EA809A4240F2E780023992
:1003C0003B449A1AA3B2B2FBFEF00EFB102243EAA2
:1003D000024300FB0CFC9C4509D9FB1800F1FF32DD
:1003E00080F0D6809C4540F2D3803B44023840EAFE
:1003F0000140A3EB0C0300211DB1F3400022C5E92D
:100400000032BDE8F0878B4205D90DB1C5E9000186
:1004100000210846F5E7B3FA83F1002946D1734578
:1004200002D3824200F20581841A6EEB030201209E
:100430009046002DE5D0C5E90048E2E7002A00F02B
:100440009080B2FA82F6002E40F0A4808A1A030C43
:100450004FEA174E80B2BCB20121B2FBFEFC0EFB8C
:100460001C2243EA024304FB0CF29A4207D9FB1810
:100470000CF1FF3802D29A4200F2E080C4469B1A87
:10048000B3FBFEF20EFB123340EA034302FB04F41B
:100490009C4207D9FB1802F1FF3002D29C4200F2C5
:1004A000CA8002461B1B42EA0C40A5E7C1F12006A8
:1004B0008B4022FA06F71F430EFA01F420FA06F3E6
:1004C0002EFA06FE4FEA1749234300FA01F81FFAF5
:1004D00087FCBEFBF9F01C0C09FB10EE44EA0E444D
:1004E00000FB0CFEA64502FA01F209D93C1900F105
:1004F000FF3A80F09C80A64540F2998002383C4447
:10050000A4EB0E041FFA83FEB4FBF9F309FB1344BA
:100510004EEA044403FB0CFCA44508D93C1903F142
:10052000FF3E80F08280A4457FD9023B3C4443EAF1
:100530000040A4EB0C04A0FB02EC64457346E146CA
:1005400062D35FD05DB1B8EB030264EB090404FA37
:1005500006F622FA01F31E43CC40C5E900640021EF
:100560004FE7B1FBF2FC010C41EA0E4180B240EAD8
:1005700001423B4638463C46B846BE462026B1FBC3
:10058000F7F1A2EB080241EA0C4166E7014618E7E1
:1005900010462CE7C6F120022EFA02F3B740B14014
:1005A00020FA02F24FEA174E0A43B3FBFEF8BCB240
:1005B0000EFB1833110C41EA034108FB04F9B0406B
:1005C00089454FEA104380B23ED9791808F1FF3CC3
:1005D00001D289451FD8A1EB0901B1FBFEF909FB46
:1005E00004F80EFB191192B242EA0142424529D2A7
:1005F000BA1809F1FF31C4D24245C2D2A9F10201B1
:100600003A44BEE7F0459DD2BEEB02036CEB070C0B
:100610000138E14696E7A7EB09094944A8F1020C25
:10062000B1FBFEF909FB04F8DBE773467FE75046B0
:1006300066E70846FDE63B44023A33E7ACF1020CBC
:100640003B441CE749469CE7A1EB0901C446B1FBCA
:10065000FEF909FB04F8C4E7704700BFDFF834D0A7
:10066000002103E00C4B5B58435004310B480C4B0A
:1006700042189A42F6D30B4A02E0002342F8043BA8
:10068000094B9A42F9D304F055F821F02FF801F004
:1006900063F87047000003206C4802080000002047
:1006A0006401002080030020E4390120FEE7704748
:1006B00008B500F0BBFDBDE8084000F03FBD00F00C
:1006C000B7BD704710B5042104461FF022FE204636
:1006D00010BD000038B50C4B0C4C18800C4B822020
:1006E00019806368984740F6110398420AD1094D72
:1006F00023682C60822098472B688220DB6898470B
:10070000002038BD0120FCE7A60300204C0000209B
:10071000A4030020A80300204FF4A071F020FFF7ED
:10072000D9BF0000F7B5394D2B6804461B698220FC
:100730009847208000284ED02B680DF106025B6997
:1007400001A982209847324B1B78002B4BD0BDF873
:10075000062040F674639A423FD9ADF80630BDF8E2
:1007600006209B1A9BB20A2B42D90B22B3FBF2F351
:10077000284A1288934201D9013A93B2BDF8042065
:10078000254840F6B8318A4234D8C2F571620E323B
:10079000016892B20F25B2FBF5F2204D2D88AA42D6
:1007A00084BF05F1FF35AAB28A4215468EB22AD916
:1007B000921B91B21A4E3768BB42BAB28CBF9A1ADA
:1007C000D21A92B211440529C4BF05603360036890
:1007D00063803368A38003B0F0BDB32A9CBFB4220A
:1007E000ADF80620BBE7BDF80630A3F5B473B9E752
:1007F0000023C3E7C2F56D62083292B20E2A016887
:10080000C8D800252A46891A89B2D3E7A803002050
:10081000301C0020A4030020A0030020A603002019
:100820009C03002037B568460D461446FFF77AFF53
:10083000BDF8000030B1BDF802302B60BDF80430C7
:100840002360012003B030BD032821D8DFE800F089
:10085000020B12190F4B1A68B2FA82F252090421E4
:100860000D4804F0FBB90B4B5A68B2FA82F25209F8
:100870000821F5E7074B9A68B2FA82F25209102173
:10088000EEE7044BDA68B2FA82F252092021E7E778
:10089000704700BFAC03002000100240032821D89D
:1008A000DFE800F0020B12190F4B1A68003A18BF6C
:1008B000012204210D4804F0D1B90B4B5A68003ACB
:1008C00018BF01220821F5E7074B9A68003A18BFC4
:1008D00001221021EEE7044BDA68003A18BF01222A
:1008E0002021E7E7704700BFAC0300200010024062
:1008F00003280DD8DFE800F00206080A04210548A5
:1009000004F0B1B90821FAE71021F8E72021F6E751
:10091000704700BF0010024008B5032811D8DFE877
:1009200000F0020A0C0E0421074804F091F9431E5E
:100930005842584108BD0821F6E71021F4E720216C
:10094000F2E70020F3E700BF0010024070B5084D49
:1009500000240126E0B2FFF7DFFF18B12B68012B5E
:1009600018BF2E600134052C05F10405F2D170BDCD
:10097000AC030020012380F8781080F879307047AC
:100980007047002070470000034B4164003918BFD6
:1009900001211970704700BFA32C0120704700206F
:1009A0007047836B0BB10846184770474FF6FF70CE
:1009B0007047406803689B691847704770477047E5
:1009C0007047704710B5044600F048FD236803499E
:1009D000D3F890302046BDE810401847000000D002
:1009E00008B503680446D3F8843098472368204646
:1009F000DB6F984700F0ECF8236820465B6F984760
:100A0000292001F01BF900F0E3F8236820465B6F12
:100A10009847F8E710B5044609F072FA23682046B3
:100A2000D3F8BC30BDE81040184700F0FBBC00F024
:100A3000FFBC00F031BD00F0D1BC00F041BD00F0C2
:100A400049BD00F0D5BC08F089BC10B5842104462E
:100A50001FF05FFC204610BD10B590F8341090F8E0
:100A600078400C4B8C421A7809D03AB90A4A0B49A3
:100A70001488088810800C8001221A7010BD002A8A
:100A8000FCD0054A05491488088810800C80002293
:100A9000F3E700BF9C2C0120982C01209A2C012008
:100AA00070B50D46194635B9094B0A4A0A4840F255
:100AB000FF2120F06BFBC0E90F52084B003A18BF32
:100AC00001221A700368BDE87040D3F890301847CF
:100AD0003822020870220208BE220208A22C01203D
:100AE00008B5094B1B888B4203D8084B1B889342DF
:100AF00005D9074B074A0848A32120F047FB074BBD
:100B00001980074B1A8008BD982C01209A2C0120CF
:100B10000323020866230208BE2202089E2C01203D
:100B2000A02C0120034690F87A0018B15868036899
:100B30001B68184770470000012108B500220846CD
:100B400006F000F90A4B186028B90A4B0A4A282116
:100B50000A4820F01BFB00220421012006F091F935
:100B6000074B186018B9074B034A2C21F0E708BD62
:100B7000C0030020A9230208F2230208212402084E
:100B8000BC0300206E240208024B4FF0FF311868AE
:100B900006F022B9C0030020014B186806F048B9DE
:100BA000C0030020024B0021186806F015B900BFF1
:100BB000C0030020FFF7F0BF03480449006800238A
:100BC0001A4606F099B900BFBC03002004000020BB
:100BD00013B5084C00231A4601A9206806F0BDF998
:100BE00020684FF0FF33002201A906F0B6F902B0E9
:100BF00010BD00BFBC03002003685B6C18470120D8
:100C0000704703689B6A1847FEE740F2EF30704771
:100C1000054B0360054B4FF08062C3F88820BFF39B
:100C20004F8FBFF36F8F7047582D020800E100E02F
:100C300010B504464FF45A61FFF7EAFF20461FF053
:100C400068FB204610BD000082B0002301930E4BCC
:100C50001A6B42F400021A631A6B02F4000201924A
:100C6000019A1A6942F400021A611A6922F4000218
:100C70001A61064B064A1A61064A5A61064B4FF042
:100C800080629A6002B0704700380240C41D0020A4
:100C9000E90E0008090C000800E100E008B50A2888
:100CA00009D8DFE800F006100E0808080810101038
:100CB0001000022008BD054B054A0648902120F08F
:100CC00065FA0020F6E70120F4E700BFB02402082F
:100CD000CB2402081625020838B50C46887FFFF79A
:100CE000DDFFA58AE28A164B2169586342EA054274
:100CF0005A64628BD963521B1A642568082D0ED181
:100D00009A611A615862207F0E4A42EA0062DA61F3
:100D1000E2681A620C4A5961D9601A6038BD002233
:100D2000D8611A61E1680A0A480902F4784200F4BD
:100D3000FC600243C1F3C4010A439A63034AECE72F
:100D400000B002400900010001230200012303005A
:100D500008B50B280BD8DFE800F00612100A0A0AC3
:100D60000A0808080808022008BD0520FCE7054B12
:100D7000054A06486F2120F009FA0020F4E7012017
:100D8000F2E700BFB0240208612502081625020818
:100D90002DE9F04191F81D800C464046FFF7D8FF41
:100DA000A77F05463846FFF7D3FF06463846FFF7CC
:100DB00075FFA18A628B444B521A1A649A61228B86
:100DC000521A1A61E28A586342EA01425A6421695E
:100DD0006268D963DA602068802828D0227F0FD823
:100DE000202867D0402865D004281AD0364B45EA21
:100DF000026545F40035B845DD6161D0334A44E011
:100E0000B0F5807F04D0B0F5007FEFD1304800E02E
:100E1000304840EA0262DA61E2681A625E62596151
:100E200032E045EA026242F40032DA61F6E7A06895
:100E3000021DDA62227F45EA026545F40035DD6174
:100E40005E625961017841B1012921D0224B234AC8
:100E500023484FF48D7120F099F9DA69418822F422
:100E60007F42013922F0100242EA0122DA610121B7
:100E7000154BDA6942F02002DA61DA699206FCD495
:100E800010229A600029B9D0164A1A60BDE8F08194
:100E9000B2F1FF01DA69408822F47F4200F1FF30AD
:100EA00022F0100242EA002242F0100218BF012193
:100EB000DA61DDE745EA0262034B42F40032B4E74F
:100EC00042F20132E1E700BF00B00240012301001D
:100ED000090002000A000200AB250208C52502082D
:100EE0001625020801230200024B1B68586803689C
:100EF0005B691847A42C012070B5044625460A4BAF
:100F00000C30002660602672667245F8203B602235
:100F1000294609F04BF904F55A63EE6024359D42E9
:100F2000FBD1204670BD00BF582D0208034B1A6844
:100F3000D207FCD423229A60704700BF00B0024061
:100F40007047000030B50F4C2568ED07FCD4232511
:100F50000904A56041F001010225FF2B656361646E
:100F6000E0630AD00849656241EA0363E361074B25
:100F700022626061E060236030BDE561039BA36392
:100F8000034BF8E700B00240090001000100020035
:100F90000100030030B50E4C2568ED07FCD4232575
:100FA0001204A56042F001020225FF2B6563626412
:100FB000E063E16008D01B0643F00213E361054BD8
:100FC00065626061236030BD034BE3610123F9E793
:100FD00000B0024001000200020002FF30B50B4CDD
:100FE0002568ED07FCD4232512041B06A56043F4F5
:100FF0000033022542F0010265636264E063E16050
:10100000E361034B65626061236030BD00B0024064
:1010100001000200012070470C2070470C2303FBE5
:101020000100083070470C2303FB010008307047B3
:101030000120704740F22470704740F2247303FB94
:1010400001000830704740F2247303FB01000830B0
:101050007047012070471020704700EB01100830E6
:10106000704700EB011008307047084601F0D4BA11
:1010700010B5034B0360044607F0C5FE204610BDC3
:10108000102E020810B50446FFF7F2FF2046142187
:101090001FF03FF9204610BD10B5034B0360044616
:1010A00007F0B1FE204610BDDC2D020810B5044645
:1010B000FFF7F2FF204640F22C711FF02AF920467C
:1010C00010BD000010B5034B0360044607F09BFE03
:1010D000204610BDA82D020810B50446FFF7F2FF08
:1010E000204618211FF015F9204610BD10B5084BF9
:1010F0000360044600F5EB60FFF7BAFF04F12C0033
:10110000FFF7CAFF04F11400FFF7DCFF204610BD13
:10111000442E020808B50248FFF7E8FF08BD00BFEB
:101120009C12002010B50446FFF7E0FF204640F671
:10113000CC011FF0EEF8204610BD00002DE9F34170
:1011400001F0E8F8054601F0E9F8002401462346DD
:1011500028462246009410F049F8274B274A1A6087
:10116000204602F081F9264D264B274A27489A60EF
:101170000FF0A4FF2B68BFF35B8FDB0735D4284645
:101180001FF0C9F888B3224C224B236004F5EE66A9
:1011900004F1140004F12C0804F5EB676060C4F856
:1011A0000880E760266107F02FFE1B4B6361404615
:1011B00007F02AFE194BE362384607F025FE184B6C
:1011C000C4F8583704F26C7003F011F8224604F2A8
:1011D0006C71304602F0B8F9304601F01DFA114842
:1011E0001FF0F2FF28461FF0A2F80F4802B0BDE83A
:1011F000F041FFF7E7BB00BF082D012048040020A5
:1012000098120020680400204C04002008000020F0
:101210009C120020442E0208A82D0208DC2D020892
:10122000102E020815110008C403002070470000AA
:101230000148FFF7D5BB00BFC403002070B5264EA0
:10124000264C274D274B23603046FFF755FE284696
:1012500015F0D2F824480EF099F8244B2448DC60AD
:1012600000224FF48071C3E9121222491A86C3E9A1
:101270001A12214983F85820C3E91E011F49C3F8F7
:1012800080101F491F480B60F021C3E90422C3E905
:101290000622C3E90822C3E90A22C3E90E22C3E9F0
:1012A0001022C3E91422C3E917225A6683F870207A
:1012B0005A67C3E9016501801348018013484FF460
:1012C000A07101801248018012490A70012283F83E
:1012D0003420114A1A6070BDF404002094120020DA
:1012E00068040020282202084C040020C4030020C7
:1012F0000000010101000001000450001A00140068
:10130000A42C0120982C01209E2C01209A2C012035
:10131000A02C01209C2C01206C2C02080148FFF716
:1013200077BC00BFF4040020002070478180704724
:10133000C180704701817047418170477047704795
:1013400070477047704710B4C4880368121B8488C4
:101350005B6D091B12B25DF8044B09B218474FF6DA
:10136000FF7383814FF0FF3303621368C361106022
:101370007047002070478B8883800120704770473A
:1013800080F82610704790F82600704710B50022AC
:10139000B1F90840B1F90A10028042808480C1800E
:1013A00010BD0022028042808280C2807047017797
:1013B000704780ED080A704780F82410704780F865
:1013C0002510704701207047983070478C30704767
:1013D000843070477047704770470000034B90227D
:1013E00083F85A2383F85823704700BF00E100E0D8
:1013F000094A0A49D3680A48C3F30A03013B9BB26E
:101400000B801169C1F30A01013901801364536B28
:1014100043F0010353637047006801406A1B0020DA
:10142000681B0020014BD3F8AC00704700680140F6
:10143000024B0122C3F8AC105A62704700680140A9
:1014400010B52C2104461EF064FF204610BD10B5D7
:10145000BC2104461EF05DFF204610BD70B5044659
:1014600007F0D1FF23689D6E0CF028FD0146204651
:10147000A8472368054AD3F88C502046AC46002381
:10148000BDE87040A2F51631604700BF00B004D03F
:1014900007F0A0BF07F0AABF07F066BF08F0D5B8F5
:1014A00090F8252012B103685B691847704790F8DF
:1014B00025201AB190F8242002B11860704700006E
:1014C000034B4FF080629A604FF080729A607047D1
:1014D00000E100E0084B4FF08062C3F88820BFF3C2
:1014E0004F8FBFF36F8F4FF08072C3F88820BFF328
:1014F0004F8FBFF36F8F704700E100E070B500239E
:10150000124E8380124B0360336893F858200546CF
:101510000AB1D86C00B998680368DB6A98473368E9
:10152000B0FA80F4D86C640930B10368DB6A98477C
:10153000002808BF44F001042CB9064B064A0748AE
:101540002C211FF023FE284670BD00BFA42C0120D3
:10155000582E020803260208612602089A2602086D
:1015600070B5254E3568BFF35B8F15F0010540D18E
:1015700030461EF0D0FE00283BD0204C204B256189
:1015800004F13400C4E90035C4E90255E584A562DC
:10159000A5850EF0E0F904F158000AF0BDFA194BE8
:1015A000A3652046184B40F8843BFFF7A7FF174B75
:1015B000C4F884302433C4F88C304FF4C803C4E931
:1015C00028350023C4F8AC30C4F8B030C4F8B430C7
:1015D000C4F8B8300E480F4BC4F89050C4F89C5073
:1015E000C4F8A850C4F898301FF0EEFD30461EF045
:1015F0009EFE024870BD00BF6C1B0020701B0020C7
:10160000803A0208782E0208F02E0208343A0208C6
:10161000D9130008143A020838B5184C23685BB394
:10162000174B184A1B6C11888B4216D1164B198820
:1016300004F01CF9236893F86A200025013283F82E
:101640006A2083F87C50FFF7B7FA206808F058FC4E
:101650002846BDE83840FFF7F7B804F007F92468DA
:10166000236820461B6A9847012384F87C300020B9
:10167000BDE83840FFF712B938BD00BFA42C0120E7
:10168000006801406A1B0020681B002007B5064B5C
:10169000ADF806001B68054801220DF1060104F0B3
:1016A00085FE03B05DF804FB0C000020701C0020D8
:1016B00008B5642005F03AFBFBE7000030B595B0B3
:1016C000102200210AA81FF068FF1422002103A89D
:1016D0001FF063FF00241E4B01941A6C42F08052ED
:1016E0001A641B6C03F080530193019B194B029405
:1016F0001A6842F440421A601B6803F440430293A4
:101700000122029B4FF48033CDE9082302254FF4D8
:1017100080030821CDE90E534FF4B473CDE91013C3
:1017200008A804231393129504F0F8F804F0BCF809
:101730000F23CDE903354FF4A0504FF48053CDE98A
:101740000603052103A8059404F0C4FA15B030BDC2
:10175000003802400070004080B59AB002F0F8FFF7
:10176000FFF7ACFF142200210DA81FF016FF002484
:10177000C74B00941A6BC748C74DDFF8548342F03B
:1017800010021A631A6B02F010020092009A019480
:101790001A6B42F020021A631A6B02F020020192C7
:1017A000019A02941A6B42F080021A631A6B02F0DB
:1017B00080020292029A03941A6B42F004021A63A6
:1017C0001A6B02F004020392039A04941A6B42F01B
:1017D00001021A631A6B02F001020492049A059442
:1017E0001A6B42F002021A631A6B02F002020592AF
:1017F000059A06941A6B42F040021A631A6B02F0C3
:1018000040020692069A07941A6B42F008021A6385
:101810001B6B03F00803224607933C21079B03F050
:101820001DFA9E480122022103F018FA22469B4825
:10183000042103F013FA224699484FF4405103F073
:101840000DFA01263C23CDE90D3692480F9403236F
:101850000DA90227109303F017F990480DA9CDE9BF
:101860000D76CDE90F4403F00FF904238B480DA941
:10187000CDE90D36CDE90F4703F006F90DA94FF478
:1018800040538748CDE90D36CDE90F4703F0FCF80A
:101890008448854B036002F0EDFFDFF838E2834BAC
:1018A0002C62C5E900E328464FF48043C5E90434BF
:1018B000C5E90244C5E9064403F0DEFB10212846D1
:1018C00003F022FE21462846794D03F03CFE4FF4FA
:1018D0008273C5E900834FF400791823C5E90693A4
:1018E00028460A23C5E90244C5E90444C5E9084479
:1018F000AC62EB6204F0FEFC8F2322463946674857
:101900008DF824308DF8344003F0A8F932464FF4B6
:101910007A7309A9284604F049FD4FF47A733246D8
:101920000DA9284604F0EEFE324639465B48614D6B
:1019300003F094F99DF83430D32B04BF5E4B1E7036
:101940005E4B0126C5E90036102240230024C5E97C
:1019500004234FF4C073C5E906344FF40063C5E9AE
:1019600008344FF4005302274FF00409AB624FF0E4
:10197000030A07230DA92846CDE90D73CDE90F937E
:101980004FF00808C5E90249CDE911A7139704F003
:1019900095FB4FF6FF7209A92846CDE90A860894FF
:1019A00009960C9404F0AAFB304602F0FDFE4FF6B7
:1019B000FF7209A92846CDE90978CDE90B6404F046
:1019C0009DFB4FF6FF7209A92846CDE909A8CDE98C
:1019D0000B9404F093FB4FF40C730893089B0C9347
:1019E0004FF6FF7209A92846CDE909980B9604F035
:1019F00085FB40F26A51284604F09EFB34220DEB31
:101A0000020021461FF0C9FD2D4D2E4B2C61C5E96A
:101A100000340923C5E905361D23C5E9073A40F21C
:101A20000D1140F24313C5E9091340F2171040F2BB
:101A30004713C5E90B032846C5E90244AC8685F87F
:101A4000364003F01BFEFF214FF4806CCDE91214E9
:101A50000521CDE914C1F0224FF050414FF4A0739D
:101A6000CDE91612CDE90E240DA922462846CDE96E
:101A70001037154D18930D94ADF864408DF86640FD
:101A800003F0C7FE114B2B601B6898472B6823E0BF
:101A90000038024000100240701D00200008024083
:101AA000000C0240041E002000300240A08601000D
:101AB000701C00203C1C0020301C0020400100A0B5
:101AC000C81C0020006801402C1C002014000020CD
:101AD00000500140005C0040144D9B689847144B37
:101AE0002846C5E90034C5E90274C5E90A47C5E9D5
:101AF0000C4402F0CFFE3146284602F081FFFEF78B
:101B0000D7FDFEF7D4FD05F0A1F80A4A0A482146A0
:101B100005F0C8F8094B0A4A18602146094805F043
:101B2000C1F8094B186005F0A3F8FEE7C41D0020BA
:101B300000B00240582F0208B1160008381C0020DF
:101B4000342F0208BF060008341C0020704770477D
:101B50007FB5094B8DF817201B6802930DF1170212
:101B60000123009201930A460146044803F02CFB2E
:101B700007B05DF804FB00BF10000020701D0020BE
:101B80007FB500238DF81730084B1B6802930A4677
:101B900001230DF11701009101930146044803F060
:101BA000A3FB9DF8170007B05DF804FB10000020B0
:101BB000701D00201FB5084C24680092CDE9013447
:101BC0000A4601230146054803F08EFB003818BF82
:101BD000012004B010BD00BF10000020701D0020C7
:101BE00002F0E2BD10B5064C00222046042103F0AD
:101BF00035F820460122BDE81040042103F02EB83C
:101C00000008024038B50B4D044601220A484FF443
:101C1000005103F023F800220421284603F01EF8A7
:101C20002046FFF733FD28460122BDE83840042155
:101C300003F014B800080240000C024038B50B4D08
:101C4000044600220A484FF4005103F007F800222E
:101C50000421284603F002F82046FFF717FD284626
:101C60000122BDE83840042102F0F8BF000802401C
:101C7000000C0240F7B5144E144F05460C46304692
:101C80000022042102F0EAFF00224FF400513846FE
:101C900002F0E4FF2846FFF7F9FC0D4B0D481B68E6
:101CA000224601A904F02EFD384601224FF40051CE
:101CB000019C02F0D3FF30460122042102F0CEFF46
:101CC000204603B0F0BD00BF00080240000C0240F7
:101CD0000C000020701C002002F066BD0268034B5F
:101CE0009A4201D102F04EBD704700BF0010004083
:101CF0007047000082B00E4B00220092596C41F4F4
:101D000080415964596C01F480410091009901921D
:101D1000196C41F0805119641B6C03F080530193DE
:101D2000019B0F216FF0010002B002F063BD00BF04
:101D3000003802400268094B9A4282B00BD100235E
:101D40000193074B1A6B42F480521A631B6B03F426
:101D500080530193019B02B0704700BF00300240E6
:101D60000038024007B50F4B02689A4216D1002294
:101D7000A3F5F0430192196B41F4000119631B6B49
:101D800003F40003019305215A20019B02F032FD68
:101D90005A2003B05DF804EB02F05EBD03B05DF8BD
:101DA00004FB00BF00B002402DE9F043044689B0B7
:101DB0001422002103A81FF0F0FB2268244B9A4252
:101DC00043D1244C244800250095236B43F00403A1
:101DD0002363236B03F004030093009B0195236BA3
:101DE00043F001032363236B03F001030193019B81
:101DF0004FF012094FF400734FF001080327042637
:101E000003A9CDE90339CDE90587079602F03CFE29
:101E10004FF480731148079603A9CDE90339CDE942
:101E2000058702F031FE0295236C43F4000323641E
:101E3000236C03F400030293029B236A43F4000320
:101E40002362236A23F40003236209B0BDE8F08310
:101E5000005C0040003802400008024000000240E0
:101E6000F0B599B004461422002107A81FF095FB95
:101E700030220DEB020000211FF08FFB22685E4B29
:101E80009A4240F0B78008230C93C0231093042398
:101E900012930CA84FF40033159303F0E3FF08B13D
:101EA000FFF726FF554B5648002400945A6C42F029
:101EB00080625A645A6C02F080620092009A019427
:101EC0001A6B42F020021A631A6B02F02002019290
:101ED000019A02941A6B42F001021A631A6B02F023
:101EE00001020292029A03941A6B42F002021A63F0
:101EF0001A6B02F002020392039A04941A6B42F0E6
:101F000040021A631A6B02F040020492049A05948C
:101F10001A6B42F004021A631A6B02F00402059273
:101F2000059A06941A6B42F008021A631B6B03F0C1
:101F30000803069302250E26069B0B964FF480633A
:101F400007A9CDE90735CDE9094502F09DFD41F628
:101F500058032C480B9607A9CDE907350927CDE989
:101F6000094502F091FD032327480B9707A9CDE906
:101F70000735CDE9094502F087FD4FF4706322482B
:101F80000B9607A9CDE90735CDE9094502F07CFD9F
:101F90004FF40C631D480B9607A9CDE90735CDE931
:101FA000094502F071FDC02319480B9607A9CDE938
:101FB0000735CDE9094502F067FD082315480B9662
:101FC00007A9CDE90735CDE9094502F05DFD4FF4DC
:101FD000A0530E480B9707A9CDE90735CDE9094570
:101FE00002F052FD58202246052102F003FC582041
:101FF00002F032FC19B0F0BD006801400038024028
:102000000014024000000240000402400018024098
:1020100000080240000C024010B5044688B01422AB
:10202000002103A81FF0B9FA2268144B9A4223D169
:1020300003F56843002101915A6C114842F4801263
:102040005A645A6C02F480120192019A02911A6B3E
:1020500042F020021A631B6B03F020030293029BE1
:102060004FF4607202230321CDE903230523CDE958
:10207000061303A902F008FD08B010BD005001408E
:10208000001402402DE9F04186B0002303932B4B4E
:102090001C68002C4FD14FF00108C3F80080284B7A
:1020A00000949A6B274842EA08029A639B6B03EA02
:1020B00008030093022703260C25009B01A94FF675
:1020C0003F03CDE90137CDE9046502F0DDFC1E4890
:1020D000059501A9CDE90187CDE9034602F0D4FCBD
:1020E00048F233131948059501A9CDE90137CDE927
:1020F000034602F0C9FC4FF683731548059501A904
:10210000CDE90137CDE9034602F0BEFC4CF2037382
:102110001048059501A9CDE90137CDE9034602F044
:10212000B3FC60230C48059501A9CDE90137CDE941
:10213000034602F0A9FC06B0BDE8F0810C1E0020A9
:10214000003802400014024000080240001802401B
:1021500000100240000C02400004024070B588B03C
:1021600000230293204B1A6C42F010021A641B6C7D
:1021700003F010030293054601A903A8029B03F094
:1021800053FE069B4BBB03F03FFE184E184B3360CB
:1021900040F2E733F360174BB0FBF3F3013B73609E
:1021A000304600233361B360B36104F07BFC044626
:1021B00080B9304604F04CFB044658B9362002F092
:1021C0004BFB0F2D0DD822462946362002F012FB7C
:1021D000094B1D60204608B070BD03F015FE40009D
:1021E000D3E70124F6E700BF00380240101E0020AC
:1021F0000010004040420F007C0000207047FEE7C6
:10220000FEE7FEE7FEE77047014804F05FBB00BF52
:10221000101E0020014803F09FBA00BFC81C002018
:10222000014802F063BB00BFC41D002001207047BD
:1022300008B51FF055FA162303604FF0FF3008BDB4
:1022400008B51FF04DFA16230360FEE770B50D4682
:1022500014460E46731B9C4201DC204670BDAFF352
:10226000008006F8010BF5E770B50D4614460E46E2
:10227000731B9C4201DC204670BD16F8010BAFF3C6
:102280000080F5E74FF0FF3070474FF400534B608C
:102290000020704701207047002070470A4A1168EB
:1022A00008B5034609B90949116010686946034435
:1022B0008B4206D91FF014FA0C2303604FF0FF3055
:1022C00008BD1360FCE700BF581E0020E83901205C
:1022D000704708B5052914D8DFE801F00B03070B98
:1022E0000B0F01F0FFF8406808BD01F0FBF88068B3
:1022F000FAE701F0F7F80068F6E701F0F3F8C068D4
:10230000F2E70020F0E710B5042104461EF001F8C2
:10231000204610BD00487047902F020829207047C2
:1023200013B5002451B1036801948DF8034001AA4C
:102330009C680DF10303A04702B010BD0846FBE7FF
:10234000C0897047008A7047C0887047808870478E
:10235000807A00F07F007047807AC00970470020C3
:10236000704700009FED010A704700BF00000000A9
:102370007047704700F598730868496803C3704751
:10238000704770474160704770477047064BC0F810
:102390004C310023C0F8503100F5A273C0F8480159
:1023A000C0F84031704700BF4D240008012303727C
:1023B0007047704710B4C26841685410034601EB7F
:1023C0006200D20748BF0A599B685DF8044B48BFBA
:1023D000D35818470346406830B19A681AB9D8688C
:1023E00000F0010070470120704710B50C21044631
:1023F0001DF08FFF204610BD10B5102104461DF0C2
:1024000088FF204610BD10B54FF4AE7104461DF094
:1024100080FF204610BD10B50BF050FD0368BDE8ED
:102420001040DB6B184710B50446D0F8400158B196
:102430000368DB68984738B1D4F8400103689B68AB
:1024400098470023C4F8403110BD00002DE9F14F3A
:10245000D0E9556A0746B06803681B6A984740F29E
:102460002373984205D8444B444AA32144481EF0A4
:102470008DFE706803681B6A98470F2803D8414B8C
:102480003E4AA421F2E7F06803681B6A98470B28CC
:1024900003D83D4B394AA521E8E70BF00FFDDFF8E3
:1024A000F09004300BF02FFDD9F8000010B1036854
:1024B000DB689847D9F8000010B103681B6898479B
:1024C000DFF8D080D8F8000010B103685B69984746
:1024D000D7F83C0110B103685B689847D8F8000052
:1024E00010B103681B689847D7F83C0110B1036826
:1024F0009B689847F068036800215B6A98474FF033
:10250000000B224BC0F804B0044680F808B003600A
:10251000B068036859465B6A9847054601F066F85B
:102520007068036859465B6A98472946064601F079
:1025300023F8331DC7F83C61C9F80040C8F80050C3
:10254000CAF800302B68C6F808A02846DB68EE639E
:102550009847336830461B689847214628460DF057
:102560007FFE236820461B69984723685B692046E5
:1025700001B0BDE8F04F1847112702089F27020855
:1025800077280208BE2802086129020838330208A9
:10259000EC2C0120E82C0120044B1B6893F85820F8
:1025A0000AB1D86C00B99868704700BFA42C01200C
:1025B000F8B5174604460E460BF042FD124B1C6060
:1025C000124B2360124B0025C4E95135114BC4E96D
:1025D00053551868036801219B68C4E94F55C4E945
:1025E00055769847284600F03FFFFFF7D5FF15F0D6
:1025F000ACFDFFF7D1FF15F023FEFFF7CDFF15F07F
:102600002BFE2046F8BD00BFF82C0120E432020862
:10261000CC320208A42C0120064BC0F84C31002318
:10262000C0F8503100F5A273C0F84801C0F840313D
:10263000704700BF4D2400087047704770477047CF
:1026400070477047704710B540F2F46104461DF0C2
:1026500060FE204610BD2DE9F0411D460368BDF91E
:1026600018701B6B0446164698472368314620466F
:102670005B6B98472368294620469B6B98472368E5
:1026800039462046DB6BBDE8F0411847094A026035
:102690004FF4807100228184FF21C0E90122C0E94A
:1026A0000322C0E90522C0E9072280F826108262D1
:1026B000704700BFB83B02082DE9F04F0446A7B0B1
:1026C000A24600250DF020FCD74BE5634AF8403BBD
:1026D00004F16C0950464FF6FF76FFF7D7FF04F17F
:1026E000980825A9484604F1C407ADF8946009F09C
:1026F0007BFA25A94046ADF8946009F075FA25A942
:102700003846ADF8946009F06FFA04F1F00304F56F
:102710008E7B25A918460293ADF8946009F064FAFF
:1027200025A95846ADF8946009F05EFA04F5A47343
:1027300025A918460393ADF8946009F055FA04F5FD
:10274000BA7325A918460493ADF8946009F04CFAC1
:1027500004F5D07325A918460593ADF8946009F0E7
:1027600043FA04F5E67325A918460693ADF894607C
:1027700009F03AFA04F5FC7325A918460793ADF859
:10278000946009F031FA04F5097325A918460893F5
:10279000ADF8946009F028FA04F5147325A91846D9
:1027A0000993ADF8946009F01FFA04F51F7325A989
:1027B00018460A93ADF8946009F016FA04F52A73E6
:1027C00025A918460B93ADF8946009F00DFA04F5AD
:1027D000357325A918460C93ADF8946009F004FAF6
:1027E00004F5407325A918460D93ADF8946009F0DF
:1027F000FBF904F54B7325A918460E93ADF89460C8
:1028000009F0F2F904F5567325A918460F93ADF8AF
:10281000946009F0E9F904F5617325A9184610934D
:10282000ADF8946009F0E0F904F56C7325A9184639
:102830001193ADF8946009F0D7F904F5777325A9E1
:1028400018461293ADF8946009F0CEF904F581634F
:1028500025A918461393ADF8946009F0C5F904F260
:10286000344325A918461493ADF8946009F0BCF9D7
:1028700004F58C6325A918461593ADF8946009F00A
:10288000B3F904F28C4325A918461693ADF8946069
:1028900009F0AAF904F5976325A918461793ADF82E
:1028A000946009F0A1F904F2E44325A918461893AD
:1028B000ADF8946009F098F904F5A26325A91846CB
:1028C0001993ADF8946009F08FF904F23C5325A9EF
:1028D00018461A93ADF8946009F086F904F5AD63D3
:1028E00025A918461B93ADF8946009F07DF904F210
:1028F000945325A918461C93ADF8946009F074F917
:1029000004F5B86325A918461D93ADF8946009F045
:102910006BF904F2EC5325A918461E93ADF89460A8
:1029200009F062F904F5C36325A918461F93ADF8B1
:10293000946009F059F904F2446325A918462093DC
:10294000ADF8946009F050F904F5CE6325A9184656
:102950002193ADF8946009F047F904F29C6318469E
:102960002293FFF793FE04F5D96318462393FFF7EC
:102970008DFE4FF4A0732A46009329465046F0235B
:10298000261DFFF768FE4FF07F43A3665146304691
:1029900006F04EFA252325A94846ADF8943009F0F3
:1029A0002AFB4FF4A0732A4600932946F023484699
:1029B000FFF751FE2946484609F0D1F8494630460E
:1029C0004FF01D0906F034FA032325A94046ADF85F
:1029D000943009F010FB692306224046CDF80090A0
:1029E0000521FFF738FE2946404609F0B8F8414670
:1029F00030464FF0050806F01BFA25A93846ADF819
:102A0000948009F0F8FA6923062241463846CDF849
:102A10000090FFF720FE2946384609F0A0F884F818
:102A2000E950394602E000BF5C3302083046062711
:102A300006F0FEF90298ADF8947025A909F0DBFACA
:102A40003A4669230298CDF800904146FFF703FE0D
:102A50000298294609F083F8029984F81551304606
:102A600006F0E6F9042325A95846ADF8943009F09C
:102A7000C2FA3A46692341465846CDF80090FFF71E
:102A8000EAFD2946584609F06AF884F8415159464A
:102A9000304606F0CDF94FF00E0B0398ADF894B028
:102AA00025A909F0A8FA3A4669230398CDF80090C1
:102AB0004146FFF7D0FD0398294609F050F80399E5
:102AC00084F86D51304606F0B3F904980D2325A91A
:102AD000ADF8943009F08FFA3A4669230498CDF89E
:102AE00000904146FFF7B7FD0498294609F037F8F2
:102AF000049984F89951304606F09AF905980C2308
:102B000025A9ADF8943009F076FA3A46692305987C
:102B1000CDF800904146FFF79EFD0598294609F043
:102B20001EF8059984F8C551304606F081F90698DB
:102B30000B2325A9ADF8943009F05DFA3A466923D4
:102B40000698CDF800904146FFF785FD0698294686
:102B500009F005F8069984F8F151304606F068F955
:102B600007980A2325A9ADF8943009F044FA3A46AB
:102B700069230798CDF800904146FFF76CFD079850
:102B8000294608F0ECFF079984F81D52304606F0FC
:102B90004FF90898092325A9ADF8943009F02BFACC
:102BA0003A4669230898CDF800904146FFF753FD57
:102BB0000898294608F0D3FF089984F8495230460E
:102BC00006F036F90998082325A9ADF8943009F0E4
:102BD00012FA3A4669230998CDF800904146FFF76A
:102BE0003AFD0998294608F0BAFF099984F8755208
:102BF000304606F01DF94FF0070A0A98ADF894A088
:102C000025A909F0F8F93A4669230A98CDF8009009
:102C10007E21FFF720FD0A98294608F0A0FF0A99B7
:102C2000304606F005F90B98192325A9ADF8943024
:102C300009F0E1F93A4669230B98CDF800907E211E
:102C4000FFF709FD0B98294608F089FF0B9984F8D6
:102C5000CD52304606F0ECF80C98182325A9ADF8B3
:102C6000943009F0C8F93A4669230C98CDF80090E1
:102C70007E21FFF7F0FC0C98294608F070FF0C99B4
:102C800084F8F952304606F0D3F80D98172325A999
:102C9000ADF8943009F0AFF93A4669230D98CDF8B4
:102CA00000907E21FFF7D7FC0D98294608F057FFCA
:102CB0000D9984F82553304606F0BAF80E9816237D
:102CC00025A9ADF8943009F096F93A4669230E9893
:102CD000CDF800907E21FFF7BEFC0E98294608F043
:102CE0003EFF0E9984F85153304606F0A1F80F9834
:102CF000152325A9ADF8943009F07DF93A466923EA
:102D00000F98CDF800907E21FFF7A5FC0F9829467B
:102D100008F025FF0F9984F87D53304606F088F8B7
:102D20001098142325A9ADF8943009F064F93A46B7
:102D300069231098CDF800907E21FFF78CFC109845
:102D4000294608F00CFF109984F8A953304606F084
:102D50006FF81198132325A9ADF8943009F04BF9B9
:102D60003A4669231198CDF800907E21FFF773FC55
:102D70001198294608F0F3FE119984F8D55330468E
:102D800006F056F81298122325A9ADF8943009F0F0
:102D900032F93A4669231298CDF800907E21FFF768
:102DA0005AFC1298294608F0DAFE129984F8015468
:102DB000304606F03DF81398102325A9ADF894305D
:102DC00009F019F93A4669231398CDF800907E214D
:102DD000FFF741FC1398294608F0C1FE139984F8C7
:102DE0002D54304606F024F814980F2325A9ADF889
:102DF000943009F000F93A4669231498CDF8009010
:102E00007E21FFF728FC1498294608F0A8FE1499A3
:102E100084F85954304606F00BF8552715981A23B4
:102E200025A9ADF8943009F0E6F840236B221598F7
:102E30000097A721FFF70FFC1598294608F08FFE91
:102E40001599304605F0F4FF1698ADF8949025A931
:102E500009F0D1F882233E2216980093632175234E
:102E6000FFF7F9FB1698294608F079FE169984F8C1
:102E7000B154304605F0DCFF17981C2325A9ADF8A6
:102E8000943009F0B8F861235F2217980093A421C9
:102E90004C23FFF7E0FB1798294608F060FE1799CE
:102EA00084F8DD54304605F0C3FF18981B2325A98C
:102EB000ADF8943009F09FF87E23422218980093D1
:102EC0006E216723FFF7C7FB1898294608F047FED5
:102ED000189984F80955304605F0AAFF19981F2360
:102EE00025A9ADF8943009F086F86B224323199890
:102EF00000975146FFF7AFFB1998294608F02FFEBF
:102F00001999304605F094FF1A98222325A9ADF8A7
:102F1000943009F070F85D2367221A9800933F21DE
:102F20004523FFF798FB1A98294608F018FE1A99CE
:102F300084F86155304605F07BFF5C271B98212300
:102F400025A9ADF8943009F056F8642245231B9862
:102F500000974146FFF77FFB1B98294608F0FFFDCD
:102F60001B9984F88D55304605F062FF1C9820238C
:102F700025A9ADF8943009F03EF8642245231C9849
:102F800000973921FFF767FB1C98294608F0E7FDF9
:102F90001C9984F8B95530462E2705F049FF1D9835
:102FA000012325A9ADF8943009F025F83B46F2221B
:102FB0001D9800974021FFF74EFB1D98294608F009
:102FC000CEFD1D9984F8E555304605F031FF1E9879
:102FD0001E2325A9ADF8943009F00DF83B46F222E6
:102FE0001E9800977C21FFF736FB1E98294608F0B3
:102FF000B6FD1E9984F81156304605F019FF1F984A
:10300000262325A9ADF8943008F0F5FF3B46F222BF
:103010001F980097B821FFF71EFB1F98294608F05C
:103020009EFD1F9984F83D56304605F001FF20981B
:10303000242325A9ADF8943008F0DDFF3B46F122AA
:10304000209800970221FFF706FB2098294608F0F8
:1030500086FD209984F86956304605F0E9FE2198EE
:10306000232325A9ADF8943008F0C5FF3B46F12293
:10307000219800970221FFF7EEFA2198294608F0DF
:103080006EFD2199114D304605F0D2FE2298CDF803
:10309000008056232B225946FFF7DDFA2299C4F807
:1030A000C456304605F0C4FE2398CDF80080562360
:1030B0002B228721FFF7CFFA30462399C4F8F05628
:1030C00005F0B6FE204627B0BDE8F08FFF6600FF92
:1030D000406A7047806A704770478A880B8810B5CD
:1030E000D20A4C88C1699BB251F8220043EA0443DA
:1030F000184410BD10B50446BAB1107B68B1537BBB
:10310000D27A1B0203F4E0631A43236A03EB8203BF
:103110001A888A4202D193F9020010BD05D80138FD
:1031200080B204330028F3D1F7E70020F5E710B5AB
:103130002C2104461DF0EDF8204610BD30B58BB0B3
:103140000446BDF860500895BDF85C5007959DF8A1
:10315000505006959DF84C5005959DF848500495A3
:103160009DF8445003959DF8405002959DF83C50C1
:103170000195BDF8385000950CF0AAFC064B236071
:10318000159BE361169B2362199B63621A9BA362E2
:1031900020460BB030BD00BF9033020870B5036805
:1031A00004461B6B154698472368294620465B6BEF
:1031B000BDE870401847704730B5174D2C6814F0C3
:1031C00001048FB0BFF35B8F22D128461DF0A3F816
:1031D000F0B1124B124913480A94CDE90B433F2337
:1031E0000993114B0893114B07930123CDE9054334
:1031F00004930423CDE902430E2300930A22019491
:10320000FFF79CFF0A481DF0DFFF28461DF08FF8EE
:1032100004480FB030BD00BF5C1E0020F033020830
:1032200048470208601E00200448020818480208A7
:10323000B73100087047000030B5164D2C6814F007
:1032400001048FB0BFF35B8F21D128461DF063F8D6
:10325000E8B1114B114912480A94CDE90B433F23C1
:103260000993104B0893104B05940122CDE90643B6
:103270000423CDE9033211230093CDE90144FFF784
:103280005DFF0A481DF0A0FF28461DF050F80448D5
:103290000FB030BD8C1E0020F0330208D447020866
:1032A000901E00200C4802081C4802083532000815
:1032B0007047000030B5164D2C6814F001048FB033
:1032C000BFF35B8F20D128461DF025F8E0B13F23E6
:1032D0000993104B0893104B104911480A9401228E
:1032E000CDE906430423CDE903320A230093CDE957
:1032F0000B44CDE901440594FFF720FF09481DF078
:1033000063FF28461DF013F805480FB030BD00BF1D
:10331000BC1E00201048020820480208E4470208AA
:10332000C01E0020B13200087047000030B5164DB5
:103330002C6814F001048FB0BFF35B8F20D12846B6
:103340001CF0E9FFE0B13F230993104B0893104BA9
:10335000104911480A940122CDE906430423CDE91E
:10336000033214230093CDE90B44CDE901440594C5
:10337000FFF7E4FE09481DF027FF28461CF0D7FFA1
:1033800005480FB030BD00BFEC1E002014480208F5
:1033900024480208F4470208F01E002029330008E0
:1033A00000207047002070470EB403B503AB002126
:1033B00053F8042B01930BF009FE02B05DF804EB07
:1033C00003B070470CB407B504AB53F8042B01935A
:1033D0000BF0FCFD03B05DF804EB02B07047000099
:1033E000436C10B5044673B3038F2BB9184B194ABD
:1033F000C52119481DF0CAFEC38E00EB43035B8C48
:103400000BB30DF020FC238F012B03D8134B144A70
:10341000CB21EEE7E28E531C9BB2092B194688BFE5
:10342000A3F10A0104EB410140F63F10498C8142AF
:1034300009D10A2B04EB420228BF002304EB43030B
:10344000508C588451842046BDE810400DF0FEBADF
:10345000042A02080D2A0208B82A0208022B0208D0
:10346000102B02080DF0B9BA38B518BB124B13482F
:103470001C681349B4B12268224402606268224485
:103480000A60A26814440F4B00221A8000F02AF848
:10349000054600F025F80C4B1C600C4B1D600C4BD6
:1034A000188007E00B4B03600B4B0B600B4B1C6849
:1034B000002CE8D138BD00BF281F0020201F0020AD
:1034C0001C1F0020241F0020FC2C0120042D0120A3
:1034D000002D01202C480208284802084048020814
:1034E00001207047004870472C1F002010B5FFF7DF
:1034F0001DFF064C2060FFF75FFE6060FFF7DAFEFD
:10350000A060FFF799FEE06010BD00BF2C1F0020F7
:1035100010B5002404600C6014601C6010BD70477E
:1035200010B54FF4AE7104461CF0F3FE204610BDFA
:1035300010B50446D0F8580100F05CFE2046BDE806
:1035400010400AF03DBD000010B50446FFF730F80A
:10355000014B2360204610BD5038020870470438E4
:103560007047704710B5102104461CF0D2FE20466B
:1035700010BDA0F10400F5E700228260024A02605B
:1035800018324260C1607047A438020870470000DA
:1035900010B5034B03600446FFF753F8204610BDF7
:1035A000CC38020810B50446FFF7F2FF204640F27F
:1035B00024711CF0AEFE204610BDB0F900308B42E5
:1035C00010B510DC848823441BB299420BDAB0F9A1
:1035D0000230934207DCC1880B441BB29A42ACBF55
:1035E0000020012010BD0020FCE7000010B50446BB
:1035F000FFF762F8064B23600023C4F8103784F805
:10360000143743F23903C4F82037204610BD00BFF9
:10361000CC38020870B586B000240F4B00941A6BAA
:103620000E4D42F040021A631B6B059403F04003F9
:103630000093009B4FF40056012301A92846CDE9D1
:103640000163CDE9034401F01FFA224631462846C2
:1036500001F004FB06B070BD0038024000180240C3
:1036600002484FF4005101F0FEBA00BF00180240BA
:1036700030B5D0F82047084D43F2390305FB043339
:10368000521A23F000430132C0F82037B3FBF2F0A6
:1036900002FB1030084430BD6D4EC641034608465B
:1036A00041B1D3F800272C2A0BDD93F80A0780F0EC
:1036B00001007047D3F804272C2A03DD93F80B0789
:1036C000F5E70020704738B50123002580F89536CE
:1036D000044680F8E55580F8115680F83D5680F88C
:1036E000695600F5B8600BF09BFD04F2EC500BF04E
:1036F00097FD04F5C3600BF093FD04F5CE600BF06D
:103700008FFD04F244600BF08BFD84F8FC5638BD4D
:1037100038B50023012580F89536044680F8E55534
:1037200080F8115680F83D5680F8695600F5B8606B
:103730000BF076FD04F2EC500BF072FD04F5C36063
:103740000BF06EFD04F5CE600BF06AFD04F24460F0
:103750000BF066FD84F8FC5638BD90F8FC3610B5C9
:10376000044633B1FFF7AFFF2046BDE81040FFF736
:1037700077BFFFF7CDFFF7E710B5002380F8B93525
:1037800080F88D3580F861350123044680F83535A1
:1037900000F294500BF044FD04F5AD600BF040FDD9
:1037A00004F23C500BF03CFD04F5A260BDE8104073
:1037B0000BF036BD10B5002380F8093580F8DD34F4
:1037C00080F8B1340123044680F8853400F2E440E7
:1037D0000BF026FD04F597600BF022FD04F28C40FF
:1037E0000BF01EFD04F58C60BDE810400BF018BD19
:1037F00070B50126044680F8FD660D46FFF763FFAD
:103800002046FFF7B9FF2046FFF7D4FF65B1062534
:103810002046FFF725FF013DFAD10023C4F81837F1
:10382000012384F81C3770BD034832464FF4005121
:1038300001F014FAF1E700BF0018024090F8FD16FD
:1038400059B9D0F8F426002A01DCFFF7D1BFD0F82F
:10385000F836002B01DC0121F7E77047002310B593
:10386000044680F8BD3080F8753280F8493280F81F
:103870001D3280F8F13180F8C53180F8993180F837
:103880006D3180F8413180F8E93080F81531983099
:103890000BF0C6FC04F514700BF0C2FC04F50970C3
:1038A0000BF0BEFC04F5FC700BF0BAFC04F5E670FE
:1038B0000BF0B6FC04F5D0700BF0B2FC04F5BA7056
:1038C0000BF0AEFC04F5A4700BF0AAFC04F58E70AE
:1038D0000BF0A6FC04F1C4000BF0A2FC04F1F00014
:1038E000BDE810400BF09CBC10B50446FFF7B6FFD6
:1038F000D4F8F4360A2293FBF2F15143A3F13202D9
:10390000092A49D932294FF0010221DCA3F1140020
:1039100009284CD914290FDC03F10901122950D9C7
:103920000A3B092B48D9012384F8BD3004F19800E3
:10393000BDE810400BF074BCA3F11E01092931D978
:10394000283B092BEFD884F8992104F5BA70EFE7EA
:10395000A3F15000092815D950290BDCA3F13C0133
:10396000092914D9463B092BDDD884F81D2204F51A
:10397000FC70DDE75A3B092BD5D884F8752204F595
:103980001470D5E784F8492204F50970D0E784F86B
:10399000F12104F5E670CBE7012384F8C53104F585
:1039A000D070C5E784F86D2104F5A470C0E784F8F1
:1039B000412104F58E70BBE784F8E92004F1C400CE
:1039C000B6E784F8152104F1F000B1E7002310B543
:1039D000044680F8A13280F8CD3280F8F93280F8C0
:1039E000253380F8513380F87D3380F8A93380F88F
:1039F000D53380F8013480F82D3480F8593400F53F
:103A00001F700BF00DFC04F52A700BF009FC04F597
:103A100035700BF005FC04F540700BF001FC04F56B
:103A20004B700BF0FDFB04F556700BF0F9FB04F541
:103A300061700BF0F5FB04F56C700BF0F1FB04F515
:103A400077700BF0EDFB04F581600BF0E9FB04F2FD
:103A50003440BDE810400BF0E3BB10B50446FFF75F
:103A6000B5FFD4F8F8360A2293FBF2F15143A3F1E3
:103A70003202092A49D932294FF0010221DCA3F18F
:103A8000140009284CD914290FDC03F1090112296B
:103A900050D90A3B092B48D9012384F8A13204F5F7
:103AA0001F70BDE810400BF0BBBBA3F11E0109293C
:103AB00031D9283B092BEFD884F8A92304F561708C
:103AC000EFE7A3F15000092815D950290BDCA3F129
:103AD0003C01092914D9463B092BDDD884F825235C
:103AE00004F54070DDE75A3B092BD5D884F8CD2288
:103AF00004F52A70D5E784F8F92204F53570D0E78B
:103B000084F8512304F54B70CBE7012384F87D330F
:103B100004F55670C5E784F8D52304F56C70C0E74A
:103B200084F8012404F57770BBE784F82D2404F5AC
:103B30008160B6E784F8592404F23440B1E713B544
:103B4000D0F80037562200F29C645343642293FB62
:103B5000F2F30522009220461BB22B220E21FEF723
:103B60007AFD204602B0BDE810400BF059BB10B5FD
:103B70000446FFF701FE002384F83535012384F85D
:103B8000B93504F294500BF04BFB04F5A2600BF036
:103B900047FB19220F212046FFF76AFD94F80937E9
:103BA00023B128235843642390FBF3F0D4F8F8366C
:103BB0001B1A23EAE373C4F8F836D4F800370A3343
:103BC000642BA8BF6423C4F800372046FFF745FFE5
:103BD0002046FFF7B4FF2046FFF742FD0023C4F85C
:103BE0001037012384F8143710BD70B50446012541
:103BF0000026FFF7C1FD04F5AD6084F8356584F853
:103C00008D550BF00DFB04F5A2600BF009FBD4F809
:103C1000F43684F808570A33642BA8BF6423C4F829
:103C2000F436D4F800371433642BA8BF6423C4F8E7
:103C300000372046FFF758FE2046FFF780FF20465A
:103C4000FFF70EFDC4F8106784F8145770BD38B53F
:103C50000446FFF791FD002384F83535012384F8ED
:103C6000613504F23C500BF0DBFA04F5A2600BF076
:103C7000D7FA2D221E212046FFF7FAFC94F80937C7
:103C800023B128235843642390FBF3F0D4F8F8368B
:103C90001B1A23EAE373C4F8F836D4F800372D3B37
:103CA00023EAE3730125C4F80037204684F80A5755
:103CB000FFF7D3FE2046FFF742FF2046FFF7D0FC78
:103CC0000023C4F8103784F8145738BDD0F80427FF
:103CD00056235A4312F1630F13B516DB42F2FB1160
:103CE0008A4202DC642392FBF3F300F5D9640522D7
:103CF000009220461BB22B228721FEF7ACFC204607
:103D000002B0BDE810400BF08BBA0023EDE738B5E8
:103D10000446FEF797FC2046FFF77CFC0025642252
:103D2000C4F8F426C4F8F826A4F8FC56C4F80057E2
:103D3000C4F80457C4F8085701212046FFF798FC3F
:103D4000462803DD5B28B4BF0D4602250023C4F8D6
:103D5000103784F81437C4F8183784F81C37204615
:103D6000C4F80C57FFF7C0FD2046FFF776FE20464B
:103D7000FFF7E5FE2046FFF7A9FF2046FFF7FCFC12
:103D80002046BDE83840FFF715BD000070B5044679
:103D900000224FF40051002564261D4800F05EFF0C
:103DA0002046C4F8F466C4F8F866A4F8FC56C4F8D3
:103DB0000057C4F80457C4F8085784F8145784F817
:103DC0001C57C4F81057C4F81857FFF78DFD20464C
:103DD000FFF743FE2046FFF7B2FE2046FFF776FFCF
:103DE0002046FFF7C9FC2046FFF7E4FC2046FFF71A
:103DF0006AFC324601212046FFF73AFC462803DDE3
:103E00005B28B4BF0D460225C4F80C5770BD00BF37
:103E10000018024090F8143710B50446B3B1D0F83A
:103E200010371033B3F57A7FC0F810370EDBFFF789
:103E3000A3FC2046FFF7BEFC002384F81437C4F827
:103E4000103794F8FD360BB9C4F8083794F81C37CE
:103E50006BB1D4F8183740F6B73210339342C4F838
:103E6000183704DD2046BDE81040FFF78FBF10BDB6
:103E700010B50446FFF79EFC002384F88534012327
:103E800084F8093504F2E4400BF0CAF904F58C60BB
:103E90000BF0C6F919220F212046FFF7E9FB94F831
:103EA000083723B128235843642390FBF3F0D4F858
:103EB000F4361B1A23EAE373C4F8F436D4F8043753
:103EC0000A33642BA8BF64232046C4F80437FFF7E5
:103ED0000BFD2046BDE81040FFF7F8BE38B504469C
:103EE0000125FFF767FC002384F8853404F597600B
:103EF00084F8DD540BF094F904F58C600BF090F924
:103F0000D4F8F83684F809570A33642BA8BF642321
:103F1000C4F8F836D4F804371433642BA8BF6423EC
:103F20002046C4F80437FFF798FD2046BDE8384026
:103F3000FFF7CCBE10B50446FFF73CFC002384F825
:103F40008534012384F8B13404F28C400BF068F915
:103F500004F58C600BF064F92D221E212046FFF73A
:103F600087FB94F8083723B128235843642390FB38
:103F7000F3F0D4F8F4361B1A23EAE373C4F8F436EA
:103F8000D4F804372D3B23EAE373C4F80437012344
:103F9000204684F80B37FFF7A7FC2046BDE8104009
:103FA000FFF794BED0F80C17012938B5044637D076
:103FB00002296ED089B9FFF771FB98B1D4F8F436B5
:103FC000282B51DDD4F804374F2B4DDC642201211E
:103FD0002046FFF74DFB2D2846DD2046BDE8384042
:103FE000FFF746BFD4F8F8561E2D0DDDD4F8003784
:103FF000272BF2DD322DF0DC642201212046FFF771
:1040000037FB282807DDE8E7642201212046FFF777
:104010002FFB3228EADC2046BDE83840FFF75EBFC0
:10402000D0F8F8563C2D13DD00212046FFF736FB73
:10403000A0B9D4F80037272B1BDCD4F804371D2B8C
:104040001FDD642201212046FFF712FB2328D9E758
:104050006422FFF70DFB5028DDDDE5E7D4F8F436E8
:10406000232B01DD192DE4DC2046BDE83840FFF7A5
:1040700061BF642201212046FFF7FAFA4628CADD13
:10408000DBE7642201212046FFF7F2FA3C28C2DD7B
:10409000D7E70021FFF702FB78B9D4F8F836192BDF
:1040A00013DD022201212046FFF7E2FA0228B2D0F6
:1040B0000328D9D0884290D038BD642201212046FF
:1040C000FFF7D6FA2828CFDDE7E764220121204652
:1040D000FFF7CEFA3C289EDDE3E70B7937B50446BF
:1040E0000D46002B7AD100F5CE6168460BF034F90D
:1040F000B5F90820B5F906106846FFF75EFA28B151
:10410000204603B0BDE83040FFF727BB04F244610E
:1041100068460BF021F9B5F90820B5F90610684694
:10412000FFF74BFA0028EBD194F8FC36002B55D062
:1041300094F8FD36002B51D104F5B86168460BF0B8
:104140000BF9B5F90820B5F906106846FFF735FAFE
:1041500058B12046FFF70BFD94F8FD3613B9204601
:10416000FFF720FF2046FFF769FB04F2EC51684699
:104170000BF0F2F8B5F90820B5F906106846FFF71C
:104180001CFA58B12046FFF730FD94F8FD3613B9FC
:104190002046FFF707FF2046FFF750FB04F5C361F9
:1041A00068460BF0D9F8B5F90820B5F9061068464D
:1041B000FFF703FA90B1D4F800372C2B0EDD94F8FA
:1041C0000A375BB92046FFF742FD94F8FD3613B974
:1041D0002046FFF7E7FE2046FFF730FB2946204642
:1041E00003B0BDE830400BF079BD0BF0CBBD002231
:1041F000026070477047F02070474FF4A07070471E
:104200002920FDF71BBD2820FDF718BD08B5FDF7D7
:10421000E9FCCA20FDF712FDC320FDF7F3FC0820DE
:10422000FDF7F0FC5020FDF7EDFCCF20FDF706FD7B
:104230000020FDF7E7FCC120FDF7E4FC3020FDF78E
:10424000E1FCED20FDF7FAFC6420FDF7DBFC032028
:10425000FDF7D8FC1220FDF7D5FC8120FDF7D2FC3C
:10426000E820FDF7EBFC8520FDF7CCFC0020FDF7F6
:10427000C9FC7820FDF7C6FCCB20FDF7DFFC392018
:10428000FDF7C0FC2C20FDF7BDFC0020FDF7BAFCBB
:104290003420FDF7B7FC0220FDF7B4FCF720FDF752
:1042A000CDFC2020FDF7AEFCEA20FDF7C7FC002086
:1042B000FDF7A8FC0020FDF7A5FCB120FDF7BEFC32
:1042C0000020FDF79FFC1B20FDF79CFCB620FDF7AE
:1042D000B5FC0A20FDF796FCA220FDF793FCC02058
:1042E000FDF7ACFC1020FDF78DFCC120FDF7A6FC0E
:1042F0001020FDF787FCC520FDF7A0FC4520FDF749
:1043000081FC1520FDF77EFCC720FDF797FC90206F
:10431000FDF778FC3620FDF791FCC820FDF772FC14
:10432000F220FDF78BFC0020FDF76CFCB020FDF7C0
:1043300085FCC220FDF766FCB620FDF77FFC0A2055
:10434000FDF760FCA720FDF75DFC2720FDF75AFC78
:104350000420FDF757FC2A20FDF770FC0020FDF734
:1043600051FC0020FDF74EFC0020FDF74BFCEF2038
:10437000FDF748FC2B20FDF761FC0020FDF742FC17
:104380000020FDF73FFC0120FDF73CFC3F20FDF73E
:1043900039FCF620FDF752FC0120FDF733FC00202C
:1043A000FDF730FC0620FDF72DFC2C20FDF746FC28
:1043B000C820FDF791FC2620FDF740FC0120FDF709
:1043C00021FCE020FDF73AFC0F20FDF71BFC292023
:1043D000FDF718FC2420FDF715FC0C20FDF712FC5E
:1043E0000E20FDF70FFC0920FDF70CFC4E20FDF719
:1043F00009FC7820FDF706FC3C20FDF703FC0920B2
:10440000FDF700FC1320FDF7FDFB0520FDF7FAFB8F
:104410001720FDF7F7FB1120FDF7F4FB0020FDF757
:10442000F1FBE120FDF70AFC0020FDF7EBFB162075
:10443000FDF7E8FB1B20FDF7E5FB0420FDF7E2FBA1
:104440001120FDF7DFFB0720FDF7DCFB3120FDF736
:10445000D9FB3320FDF7D6FB4220FDF7D3FB052027
:10446000FDF7D0FB0C20FDF7CDFB0A20FDF7CAFBC2
:104470002820FDF7C7FB2F20FDF7C4FB0F20FDF719
:10448000C1FB1120FDF7DAFBC820FDF725FC292030
:10449000FDF7D4FBBDE808402C20FDF7CFBB08B5E5
:1044A000FDF7A0FB0321D320FDF7E4FB80B208BD9C
:1044B00010B5C4B2022203212046FDF749FB0A20B1
:1044C000FDF78EFB204600220321FDF741FBBDE8EE
:1044D00010400220FDF784BB38B50446E4B2FDF776
:1044E00035FB00212046FDF74BFB01210546204608
:1044F000FDF746FB40EA052080B238BD10B5C4B2D6
:1045000040212046FDF73CFB030607D54C21204601
:10451000FDF736FB003818BF012010BD01224B21EA
:104520002046FDF715FB204600224B21FDF710FB2E
:104530000020F2E773B50423C4B20E461546D72116
:104540000DEB03022046FDF735FB019B1BBA1A0D4C
:10455000C3F30B23328020462B8001224B21FDF731
:10456000F7FA00224B212046FDF7F2FA02B070BDA7
:1045700010B50A4A1378984204460DD05178884203
:104580000AD00BB141B90123D454FDF7DFFA20461C
:10459000BDE81040FFF78CBF10BD00BF3C1F0020DE
:1045A00010B5C4B209212046FDF7EAFA40F0010235
:1045B000D2B220460921BDE81040FDF7C9BA10B5B6
:1045C000C4B209212046FDF7DBFA092100F0FE0202
:1045D0002046BDE81040FDF7BBBA38B5C4B20D4661
:1045E00020460A21FDF7CCFA40EA0502D2B2204665
:1045F0000A21BDE83840FDF7ABBA10B50446FDF717
:10460000A6FA20461F21FFF7E8FF2046BDE810402C
:10461000FFF7C6BF38B5C4B20D4620460A21FDF7E4
:10462000AFFA20EA0502D2B220460A21BDE838409E
:10463000FDF78EBA10B50446FFF7C1FF20461F21D3
:10464000BDE81040FFF7E6BF10B5C0B20C460B2125
:10465000FDF796FA204010BD1F21FFF7F5BF0A466F
:10466000C0B20B21FDF774BA1F21FFF7F8BF38B5B0
:10467000C4B20D4620461721FDF782FA20EA050252
:10468000D2B220461721BDE83840FDF761BA70B5B7
:10469000C4B2064604212046FDF772FA042100F058
:1046A000FB0205462046FDF753FA3046F021FFF79E
:1046B000DEFF05F0F80220460421FDF749FA492201
:1046C00020212046FDF744FA0220FDF789FA204612
:1046D00001222121FDF73CFA20469A224121FDF7D3
:1046E00037FA204601224A21FDF732FA20460122FC
:1046F0004B21FDF72DFA204600224B21FDF728FA29
:10470000204601225621FDF723FA20460122582196
:10471000FDF71EFA204601224021FDF719FA204636
:10472000FF220B21FDF714FABDE870400220FDF7CF
:1047300057BA0000054BD3F8882042F47002C3F842
:1047400088204FF000629A60704700BF00ED00E0E3
:1047500008B50B4B1A6842F400721A601A6842F4EA
:1047600080621A601A6842F480721A60032000F0B6
:104770002FF80020FDF7F2FCFDF7BCFA002008BD81
:10478000003C0240034A044B11681B780B44136041
:10479000704700BF401F002078000020014B1868C0
:1047A000704700BF401F002038B50446FFF7F6FFF2
:1047B000631C1CBF054B1B78054618BFE418FFF7A8
:1047C000EDFF431BA342FAD338BD00BF78000020A1
:1047D0000749CA6822F4E0620302120403F4E063AA
:1047E000120C134343F0BF6343F40033CB607047B4
:1047F00000ED00E0164B30B5DC68C4F30224C4F1D0
:104800000703251D042B28BF0423062D4FF0FF3579
:104810008CBF033C002405FA03F321EA0303A540FF
:1048200022EA0502A340002843EA0203ACBF00F1DC
:104830006040084A4FEA0313B8BF00F00F00DBB234
:10484000AABF00F56140135480F8003330BD00BFAB
:1048500000ED00E014ED00E0002807DB044A410908
:10486000012300F01F00834042F82130704700BF51
:1048700000E100E010B5044650B1437903F0FF02B7
:1048800013B90271FDF756FA01236371002010BDC0
:104890000120FCE710B5044620B390F8393003F04E
:1048A000FF021BB980F83820FDF75CFA022384F878
:1048B0003930236861681A6822F440320A431A606A
:1048C0005A6BA16822F007020A435A631A6CE16826
:1048D0006FF30D020A431A6400200123E06384F899
:1048E000393010BD0120FCE770477047036870B590
:1048F0005E681D68F207044614D5E90512D51A68EA
:1049000022F480721A60C26B42F00102C26301227B
:104910009A60042380F83930002380F838304369E6
:1049200003B19847B20616D5AB0414D523681A68AC
:1049300022F400521A6020229A60E36B43F00203D3
:10494000E363042384F83930002384F83830636942
:104950000BB120469847300716D5290514D5236892
:104960001A6822F400621A6008229A60E36B43F02E
:104970000403E363042384F83930002384F83830D7
:1049800063690BB12046984772070BD56B0509D5B3
:1049900023681A6822F480621A6004229A60204612
:1049A000FFF7A2FFB00714D5A90512D523681A682E
:1049B00022F400721A6002229A60E36BE36301231F
:1049C00084F83930002384F8383023690BB120464D
:1049D0009847F20613D5EB0411D523681A6822F420
:1049E00080521A6010229A60E36BE363012384F81B
:1049F0003930002384F838302046FFF776FF70BD49
:104A0000F0B590F83820012A03464FF002002BD071
:104A1000012283F8382083F8390003EB0112D2E930
:104A20000740556A174F44EA0040093C012C9CBFDF
:104A300005F07F4210434FEA01161A6888BF40EA2A
:104A4000056091B9516A394001435162012C99695D
:104A5000916103D8596A21F07F41916201220020BF
:104A600083F8392083F83800F0BDD169394001431B
:104A7000D1619919012C896911619CBF25F07F458D
:104A80001562EBE7F0FFFC002DE9F74FDFF8BC9172
:104A90006C4A00230D6801249C4004EA0506AC43DF
:104AA00040F0B7804D68032705F003044FEA430840
:104AB00007FA08FC671E012F6FEA0C0C34D88768D0
:104AC00007EA0C0ECF6807FA08F747EA0E07876077
:104AD000476827EA060EC5F300179F4047EA0E070E
:104AE0004760C76807EA0C0E8F6807FA08F747EABD
:104AF0000E07022CC76019D14FEAD30A00EB8A0ACD
:104B000003F0070BDAF820704FEA8B0B4FF00F0E13
:104B10000EFA0BFE27EA0E0E0F6907FA0BF747EAAB
:104B20000E07CAF8207001E0032CDAD1076804FAF6
:104B300008F407EA0C073C4315F4403F046068D0D2
:104B400000240194D9F8444044F48044C9F8444016
:104B5000D9F8444023F0030707F1804704F4804468
:104B600007F59C37019403F0030C019CD7F808E08B
:104B70004FEA8C0C0F2404FA0CF42EEA040E324C8B
:104B8000A0424DD004F58064A0424BD004F580646F
:104B9000A04249D004F58064A04247D004F5806467
:104BA000A04245D004F58064A04243D004F580645F
:104BB000A04241D004F58064A0423FD004F5806457
:104BC000A0423DD004F58064A04214BF0A24092409
:104BD00004FA0CF444EA0E04BC609468F74315F43C
:104BE000801F0CBF3C4034439460D46815F4001F10
:104BF0000CBF3C403443D460546815F4003F0CBFF4
:104C00003C40344354601468ED0354BF3C4034438B
:104C100014600133102B7FF43DAF03B0BDE8F08F7B
:104C20000024D5E70124D3E70224D1E70324CFE70A
:104C30000424CDE70524CBE70624C9E70724C7E70A
:104C40000824C5E7003C0140000002400038024053
:104C50000369194214BF0120002070470AB1816125
:104C600070470904FBE7436901EA030221EA0301F3
:104C700041EA02418161704701684B6913F4806326
:104C80004FF0000210D06FF480634B612023026369
:104C900080F83D3080F83E20036C80F83C2043F0E3
:104CA0000403036401207047184670472DE9F84655
:104CB00006460F4691461D464FEA114A3368BAF13F
:104CC000010F0CBF5C699C6927EA0404A4B2B4FA22
:104CD00084F46409A14501D0002025E06A1CEED0CF
:104CE000FFF75CFD089BC01AA84201D8002DE5D152
:104CF0003368BAF1010F0CBF5B699B6927EA0303B4
:104D00009BB2B3FA83F35B099945D7D100232022E4
:104D1000336386F83D2086F83E30326C86F83C30AE
:104D200042F0200232640120BDE8F8862DE9F0410E
:104D300004460F46164698462568686927EA00002B
:104D400080B2C0B16B695A0517D52B6843F4007364
:104D50002B606FF480636B6120220023236384F84F
:104D60003D2084F83E30236C43F004032364002389
:104D700084F83C300120BDE8F081731CDDD0FFF7E2
:104D80000DFDA0EB0800B04201D8002ED4D123685D
:104D90005A6927EA020292B2002ACDD000232022CB
:104DA000236384F83D2084F83E30236C1343DDE711
:104DB00070B504460D46164623685B691B0601D58F
:104DC00000201EE02046FFF757FFC8B96A1CF3D049
:104DD000FFF7E4FC801BA84201D8002DECD123682A
:104DE0005B6913F08003E7D12022236384F83D2020
:104DF00084F83E30226C84F83C3042F02002226479
:104E0000012070BD2DE9F0431546026885B0DDE94B
:104E10000C789946136843F4807313600E463B4642
:104E2000CDF8008000224FF001110446FFF73EFF4D
:104E3000236838B11B68DB0502D54FF40073236487
:104E4000032620E006F0FE061E611A4943463A4654
:104E50002046FFF76BFFA8B9236803905A690392B5
:104E60009B690393424639462046039BFFF7A0FF08
:104E7000064660B1236C042B01BF2268136843F41B
:104E8000007313600126304605B0BDE8F083B9F128
:104E9000010F236802D1EDB21D61F4E72A0A1A61FD
:104EA000394642462046FFF783FF0028E2D12368B7
:104EB000F1E700BF020001002DE9FF479A460368B1
:104EC00015461A6842F480621A601A68DDE90C78A7
:104ED00042F480721A600E463B46CDF800800022F4
:104EE0004FF001110446FFF7E1FE236838B11B685B
:104EF000DB0544BF4FF400732364032021E05FFA15
:104F000086F906F0FE061E612B4943463A462046C6
:104F1000FFF70CFFA0B9236803905A6903929B69BD
:104F20000393424639462046039BFFF741FF58B1A1
:104F3000236C042B01BF2268136843F400731360D1
:104F4000012004B0BDE8F087BAF1010F23681AD13F
:104F5000EDB242461D6139462046FFF729FF024661
:104F60000028E5D121680B6843F480730B6020466C
:104F7000CDF800803B464FF00111FFF797FE226805
:104F800060B11368B4E72A0A1A61394642462046DE
:104F9000FFF70EFF0028CBD12368D9E749F00103C2
:104FA0001361054943463A462046FFF7BFFE0038E5
:104FB00018BF0120C5E700BF0200010070B504461C
:104FC0000D46164623685B695B0701D500201EE08D
:104FD0002046FFF751FEC8B96A1CF3D0FFF7DEFB8D
:104FE000801BA84201D8002DECD123685B6913F027
:104FF0000403E7D12022236384F83D2084F83E3067
:10500000226C84F83C3042F020022264012070BD02
:1050100070B504460D46164621684B6913F04003EF
:1050200001D0002011E04A69D2060FD56FF01002BE
:105030004A612022236384F83D2084F83E30236CAB
:105040002364002384F83C30012070BDFFF7A6FBE9
:10505000801BA84201D8002DDED123685B6913F0C4
:105060004003D9D12022236384F83D2084F83E30C8
:10507000236C1343E4E7000070B5044608B901202F
:1050800070BD90F83D3003F0FF021BB980F83C2062
:10509000FCF78AFE242384F83D3023681A6822F046
:1050A00001021A601A6842F400421A601A6822F477
:1050B00000421A6000F0A8FE3F4B65689D4294BF15
:1050C0003E4B3F4B98428CBF00230123002BD6D18F
:1050D0002268394E51683B4BB0FBF3F321F03F019E
:1050E0001943B542516088BF4FF49676116A88BF64
:1050F000734321F03F0184BF4FF47A76B3FBF6F39C
:1051000001330B431362D169431E2B4821F44F41F5
:10511000854221F0FF0132D86D0040F6FC70B3FBF0
:10512000F5F30133034242D0C3F30B031943D161BA
:10513000D4E907301168034321F0C0010B43136029
:105140009168D4E9030321F40341034321F0FF01F3
:105150000B439360D4E90530D168034321F0FF018C
:105160000B43D360136843F0010313600020202336
:10517000206484F83D30206384F83E0080E7A06816
:1051800050B905EB4505B3FBF5F30133C3F30B034E
:105190007BB143F40043C9E719206843B3FBF0F344
:1051A0000133C3F30B0323B143F44043BEE70423AD
:1051B000BCE70123BAE700BFA08601007F841E0080
:1051C000FF083D0040420F002DE9F7430446994691
:1051D0000C9E0F469046FFF7E1FA94F83D30202BE5
:1051E000054603D0022003B0BDE8F08300903C499F
:1051F000192301222046FFF759FD0028F2D194F827
:105200003C30012BEED02068012384F83C30036849
:10521000D9075EBF036843F001030360036823F40A
:1052200000630360212384F83D30402384F83E303E
:10523000002323640A9B6362BDF82C306385638D71
:105240002385284BE3624246CDE900654B4639464B
:105250002046FFF7D7FD00282AD00120C3E7FFF73B
:10526000A7FD40B1236C042B01BF2268136843F4EF
:1052700000731360F1E7636A27681A4612F8011B8E
:1052800039616262628D218D013A92B262857A69DA
:10529000481E80B2520720850AD548B15A783A6133
:1052A00002336362638D013B02399BB221856385C2
:1052B000238D2A4631462046002BD0D1FFF77EFEB3
:1052C0000028CFD12268136843F4007313602023B1
:1052D00084F83D3084F83C0084F83E0083E700BF4A
:1052E000020010000000FFFF2DE9F043044687B0E4
:1052F0009946109F0D469046FFF750FA94F83D30BE
:10530000202B064604D00225284607B0BDE8F083CE
:1053100000907A49192301222046FFF7C7FC002894
:10532000F1D194F83C30012BEDD02068012384F8B2
:105330003C300368DB075EBF036843F00103036092
:10534000036823F400630360222384F83D30402384
:1053500084F83E30002323640E9B6362BDF83C302A
:105360006385638D2385664BE3622946CDE900762C
:105370004B4642462046FFF79FFD054608B10125F2
:10538000C2E7228D2368B2B902905A6902929A69E3
:105390000292029A1A6842F400721A60DFF864817D
:1053A000238D002B2CD1202284F83D2084F83C3022
:1053B00084F83E30A8E7012A0AD11A6822F48062F4
:1053C0001A6003905A6903929A690392039AE1E77B
:1053D000022A0ED11A6822F480621A601A6842F416
:1053E00000621A6004905A6904929B690493049BBA
:1053F000D4E705905A6905929B690593059BCDE713
:10540000032B56D8012B15D1324639462046FFF7DB
:10541000FFFD0028B3D123681A69636A1A70636AB2
:1054200001336362238D013B2385638D013B9BB276
:105430006385B5E7022B00963B464FF000024146DC
:10544000204619D1FFF732FC002898D123681A684A
:1054500042F400721A601A69636A1A70626A531C15
:105460006362238D013B2385638D013B9BB2638582
:1054700023681B695370D2E7FFF718FC0246002827
:105480007FF47DAF2368196821F480611960196980
:10549000636A1970636A01336362238D013B23855C
:1054A000638D013B9BB26385414600963B46204697
:1054B000C8E7324639462046FFF7AAFD00287FF4A8
:1054C0005EAF23681A69636A1A70628D616A013A75
:1054D00092B24B1C628522686362238D5069013B46
:1054E0009BB2400723857FF55BAF032B02BF136898
:1054F00023F48063136013694B7090E7020010007F
:105500000000FFFF0400010010B590F83D30202B93
:10551000DCB216D1242380F83D3003681A6822F0EB
:1055200001021A605A6A22F010025A625A6A114342
:1055300059621A6842F001021A6080F83D4000206A
:1055400010BD0220FCE730B590F83D30202BDCB2D6
:1055500016D10268242380F83D30136823F001033C
:105560001360556A4FF6F0732B400B439BB25362A6
:10557000136843F00103136080F83D40002030BD04
:105580000220FCE70068D1F800C0D2018432831801
:105590002DE9F043C6685D684C68D1F8189005F4B1
:1055A00070455D60C5680CF10107C5F30B45C6F396
:1055B0000B4626443D4445EA06455D60C668CD6815
:1055C000C6F30A062E449D6805F470459D60C768C1
:1055D0008D68C7F30A0701353D4445EA06459D60DD
:1055E0001D690E6925F007051D614FF0000E1E6153
:1055F00091F832709D6991F83180C3F818E091F804
:10560000305045EA096545EA082545EA07459D61A8
:105610005D6925F0FF055D614D695D61DD6925F41A
:10562000E06525F00705DD61D1E907573D43DD6100
:105630009D6A4D6AC3F828E0072E9D629CBF0E4DFF
:10564000AE5DDD6A05F0E025DD6288BF01268D6A6A
:10565000C96AA4EB0C0474437543033444EA05445B
:10566000DC621C6B6FF30A041C631963835843F0FC
:1056700001038350BDE8F0831039020838B50446B1
:10568000002863D090F8A13003F0FF021BB980F826
:10569000A020FCF7E5FB022384F8A13023689A6977
:1056A00022F070429A61D4E901200243E0689969CE
:1056B0000243206902430A439A619A682449606957
:1056C0000A409A609A6842EA0042A06902439A60DE
:1056D000DA68E0690A40DA60DA6842EA0042206A81
:1056E0000243DA601A69606A0A401A611A6942EA7A
:1056F0000042A06A02431A615A690A405A615A6913
:10570000E16A42EA0142216B0A435A61DA6A94F87B
:10571000350094F8361002F07F42DA62DD6A94F8C0
:1057200034202A4342EA002242EA0142DA625A6BFA
:1057300042F006025A639A6942F001029A6100201F
:105740000123C4F8A40084F8A13038BD0120FCE78F
:1057500000F800F070477047036870B59E6B5D6B92
:105760007207044614D5690712D55A6B22F0040259
:105770005A630422DA63D0F8A43043F00103C0F87E
:10578000A430002380F8A12080F8A030FFF7E2FFCA
:10579000B20716D5AB0714D523685A6B22F0020264
:1057A0005A630222DA63D4F8A4301343C4F8A43055
:1057B000042384F8A130002384F8A0302046FFF7AA
:1057C000C9FFF00710D5E9070ED523685A6B22F000
:1057D00001025A630122DA63002384F8A12084F8CD
:1057E000A0302046FBF718FF320711D52B070FD545
:1057F00023685A6B22F008025A630822DA630123F5
:1058000084F8A130002384F8A0302046FFF7A3FFDE
:1058100070BD2DE9F04190F8A030012B06460F46EF
:1058200094464FF002001FD04FF0010886F8A08088
:1058300086F8A10034240D4604FB02640FCD3834F1
:105840000FC40FCD0FC40FCD0FC42B68236030469B
:1058500062463946FFF796FE33680020C3F824807D
:1058600086F8A18086F8A000BDE8F08190F8A0201D
:10587000012A03464FF0020012D01A6883F8A100F3
:10588000506B20F00100506306480164516B41F0F9
:10589000010151630020012283F8A12083F8A000B8
:1058A000704700BF0068014037B500230193184BD3
:1058B000184D1A6C42F080521A641B6C03F080532E
:1058C0000193019B144B01221A64FEF767FF044603
:1058D0006B68DA030BD5104B0E4D01225A64FEF7AC
:1058E0005DFF04466B689B030AD5002006E0FEF7C7
:1058F00055FF001BB0F57A7FEAD9032003B030BD15
:10590000FEF74CFF001BB0F57A7FEBD9F5E700BF3F
:10591000003802400070004000000E422DE9F341C3
:10592000044640B30368DE0710D423689D075BD4A8
:105930002368190700F19D8023685A0700F1BD8094
:10594000A369002B40F0248100202CE08D4B9A6845
:1059500002F00C02042A07D09A6802F00C02082A0E
:105960000BD15B68590208D5864B1B689A03DCD5BE
:105970006368002BD9D1012015E06368814DB3F530
:10598000803F13D12B6843F480332B60FEF706FF72
:105990007C4E054633689B03C7D4FEF7FFFE401BD1
:1059A0006428F7D9032002B0BDE8F081B3F5A02F39
:1059B00004D12B6843F480232B60E3E72A6822F4A8
:1059C00080322A602A6822F480222A60002BDDD1EE
:1059D000FEF7E4FE06462B689F03A6D5FEF7DEFE23
:1059E000801B6428F7D9DDE7664B9A6812F00C0F2C
:1059F00007D09A6802F00C02082A11D15B685D0298
:105A00000ED4604A1368990702D5E368012BB2D11E
:105A10001368216923F0F80343EAC103136087E7A1
:105A2000E268594BB2B101221A60FEF7B7FE554D3C
:105A300006462B689B0707D52B68226923F0F803DD
:105A400043EAC2032B6073E7FEF7A8FE801B02281F
:105A5000EFD9A7E71A60FEF7A1FE4A4E0546336864
:105A60009F077FF565AFFEF799FE401B0228F6D928
:105A700098E76269444B82B10122C3F8802EFEF799
:105A80008DFE404E0546736F9B073FF555AFFEF701
:105A900085FE401B0228F6D984E7C3F8802EFEF766
:105AA0007DFE384E0546736F9F077FF545AFFEF7C5
:105AB00075FE401B0228F6D974E7324B1A6C12F0BF
:105AC000805228D101921A6C42F080521A641B6CE9
:105AD00003F080530193019B01272C4D2B68D805BF
